:020000040800F2
:10000000080F002045010008490100084B010008C5
:100010004D0100084F0100085101000800000000D8
:100020000000000000000000000000005301000874
:100030005501000800000000570100089D0F00084E
:100040005B0100085B0100085B0100085B01000820
:100050005B0100085B0100083D050008210600085F
:100060004D06000879060008A50600085B01000897
:100070005B0100085B0100085B0100085B010008F0
:100080005B0100085B0100085B0100085B010008E0
:100090005B0100085B0100085B010008D106000855
:1000A000251000082B100008291000082710000850
:1000B0002D1000082F100008311000085B01000807
:1000C0005B0100085B0100085B0100085B010008A0
:1000D0005B0100085B0100085B0100085B01000890
:1000E000690500085B0100085B0100085B0100086E
:1000F0005B0100085B0100085B0100085B01000870
:100100005B0100085B0100084D1000085B0100085E
:100110005B0100085B0100086D1000085B0100082E
:100120005B0100085B0100085B0100085B0100083F
:10013000DFF80CD000F056F8004800470D1D00080D
:10014000080F002005480047FEE7FEE7FEE7FEE750
:10015000FEE7FEE7FEE7FEE7FEE7FEE73101000807
:1001600040EA01039B0703D009E008C9121F08C039
:10017000042AFAD203E011F8013B00F8013B521EB9
:10018000F9D27047D2B201E000F8012B491EFBD230
:1001900070470022F6E710B513460A460446194692
:1001A000FFF7F0FF204610BD421C10F8011B00298C
:1001B000FBD1801A704730B50B4601460020202243
:1001C000012409E021FA02F59D4205D303FA02F564
:1001D000491B04FA02F52844151EA2F10102F1DCC4
:1001E00030BD0000064C074D06E0E06840F001031A
:1001F00094E8070098471034AC42F6D3FFF79CFF11
:10020000D4270008F42700082DE9F041234F0546C4
:100210003E6810280CD006DC022D0BD0042D0FD028
:10022000082D10D10EE0202D06D0402D0BD105E079
:10023000012408E0022406E0042404E0062402E08D
:10024000032400E005240146602000F074F91FE05B
:10025000642001F0E7FD00F0F5F8A04215D0402D34
:1002600002D0082D14D108E0642001F0DBFD6A20E3
:1002700000F051F900070BD507E0642001F0D2FD32
:100280006D2000F048F9C00702D00120BDE8F081E0
:100290003868801B0A28DBD30020F7E70C00002019
:1002A0002DE9F04100273D463C46662000F033F939
:1002B000C0F340186D2000F02EF906466A2000F0C9
:1002C0002AF9B8F1000F03D0F143C043CEB2C0B257
:1002D000310600D52025710601D545F00105B1068E
:1002E00001D545F00105F10602D545F010051024B1
:1002F000310703D545F0080544F00804710703D51C
:1003000045F0040544F00404B10703D545F00205A7
:1003100044F00204F10703D045F0010544F0010464
:10032000810602D5022744F08004C10603D547F0B8
:10033000010744F04004000703D547F0040744F0E8
:10034000200439466A2000F0F6F829466B2000F0B8
:10035000F2F8B8F1000F01D0E043C4B22046BDE886
:10036000F08110B56E2000F0D6F8044602216C2012
:1003700000F0E1F8204610BD10B56E2000F0CBF87B
:10038000044601216C2000F0D6F8204610BD01463D
:10039000652000F0D0B870B500F01F040D4666204F
:1003A00000F0B9F820F01F012143662000F0C3F8E7
:1003B00005F01F04672000F0AEF820F01F01214374
:1003C000BDE87040672000F0B6B82DE9F041154651
:1003D0000E460746002406E0E019315DC0B200F089
:1003E000AAF8641CE4B2AC42F6D30120BDE8F08167
:1003F0000146682000F09FB810B504460D2000F0BB
:100400008AF814B140F0E00101E020F0E001BDE81D
:1004100010400D2000F08FB810B5692000F07BF877
:1004200020F00501BDE81040692000F084B810B547
:10043000692000F070F840F00501BDE81040692027
:1004400000F079B810B5612000F065F800F00F00F9
:1004500010BD0820FFF7D8BE1020FFF7D5BE022040
:10046000FFF7D2BE4020FFF7CFBE10B500F05DF819
:10047000142001F0CCFC0220FFF7C6FE612000F042
:100480004AF820F0200040F01001612000F053F8FD
:10049000622000F040F840F02001622000F04BF8AC
:1004A0000020FFF7A9FFBDE81040FFF7F9BE0000EC
:1004B00010B50B4C042303222021204600F0B4F990
:1004C000042303220821204600F0AEF9042303226E
:1004D0000121204600F0A8F9BDE8104001F018B84D
:1004E0000014014070B5482000F015F80546AA2117
:1004F000482000F020F8482000F00DF80446294676
:10050000482000F018F8AA2C01D0002070BD01206E
:1005100070BD01F085B808B5FF218DF8001069465F
:1005200001F02AF89DF8000008BDFF217F2000F0AF
:1005300002B801F06FB901F01FB900000848016866
:10054000C9070BD0064914390968C90706D001212B
:10055000016004488068002800D000477047000010
:10056000140401402009002070B52A4E30682A4D3D
:100570002A4C400508D52868400505D52815306067
:10058000D4F8800000B180473068000509D528689C
:10059000000506D54FF400603060D4F88C0000B13F
:1005A00080473068C00409D52868C00406D54FF4D8
:1005B00080503060D4F8980000B1804730688004E3
:1005C00009D52868800406D54FF400503060D4F86F
:1005D000A40000B180473068400409D52868400471
:1005E00006D54FF480403060D4F8B00000B18047A9
:1005F000306800040CD52868000409D54FF4004089
:100600003060D4F8BC00002802D0BDE8704000473C
:1006100070BD0000140401400004014020090020C6
:100620000848016889070BD5064914390968890704
:1006300006D50221016004484069002800D0004727
:100640007047000014040140200900200848016898
:1006500049070BD5064914390968490706D504210D
:1006600001600448006A002800D00047704700007D
:1006700014040140200900200848016809070BD52F
:10068000064914390968090706D50821016004489C
:10069000C06A002800D000477047000014040140E1
:1006A0002009002008480168C9060BD506491439FD
:1006B0000968C90606D5102101600448806B00282E
:1006C00000D00047704700001404014020090020BA
:1006D00070B5204E3068204D204C800607D5286824
:1006E000800604D520203060606C00B180473068FF
:1006F000400607D52868400604D540203060206DAC
:1007000000B180473068000607D52868000604D588
:1007100080203060E06D00B180473068C00508D5AA
:100720002868C00505D54FF480703060A06E00B118
:100730008047306880050BD52868800508D54FF4C0
:1007400000703060606F002802D0BDE87040004744
:1007500070BD000014040140000401402009002085
:1007600010B50121084600F0A9FA0121042000F08B
:10077000A5FA0121082000F0A1FA0121102000F0C3
:100780009DFA0121202000F099FA0121402000F07B
:1007900095FA0121042000F079FA0121082000F0E7
:1007A00075FA0121102000F071FA1D4C0423032278
:1007B0009901204600F038F804230322D90120468D
:1007C00000F032F8042303221902204600F02CF82E
:1007D000042303225902204600F026F804230322B2
:1007E0009902204600F020F80E4C04230322202119
:1007F000204600F019F8042303220821204600F0C7
:1008000013F8042303220121204600F00DF82046AE
:1008100004230322BDE81040022100F005B80000C7
:10082000001801400014014070B50F25DC0600D40B
:10083000002203F00C041443002921D0FF290DD815
:100840000E4602E024012D017608F207FAD0026874
:10085000AA4302600268224302600CE00A0A02E036
:1008600024012D015208D607FAD04268AA434260FB
:10087000426822434260282B03D0482B00D10161FB
:1008800070BD416170BD000010B5C0210448FFF784
:1008900080FC0348C021BDE81040C030FFF779BCA0
:1008A000200900201649154A90150A60888000200A
:1008B00088718860C8600874143153150A608B8091
:1008C00088718860C8600874143113150A608B80C1
:1008D00088718860C86008741431D3140A608B80F2
:1008E00088718860C860087414310A6092148A8024
:1008F00088718860C8600874704700000018014063
:10090000A00A002010B500F051FBFFF729FF00F00E
:1009100014F800F073FB00F0E3FC01F0C9FAFFF7F4
:10092000B3FFFFF7BFFF01F073F901F027F800F004
:10093000D5FDBDE8104001F0B1B8F8B54FF4A060A6
:1009400000F0BAF81E208DF8000002268DF8016034
:1009500000248DF8024001258DF80350684600F010
:1009600079F832208DF800008DF801608DF8024092
:100970008DF80350684600F06DF836208DF80000C1
:100980008DF801408DF802408DF80350684600F064
:1009900061F814208DF800008DF801608DF8025088
:1009A0008DF80350684600F055F806208DF80000D9
:1009B0008DF801608DF802408DF80350684600F014
:1009C00049F807208DF800008DF801608DF802408D
:1009D0008DF80350684600F03DF808208DF80000BF
:1009E0008DF801608DF802408DF80350684600F0E4
:1009F00031F809208DF800008DF801608DF8024073
:100A00008DF80350684600F025F80A208DF80000A4
:100A10008DF801608DF802408DF80350684600F0B3
:100A200019F817208DF800008DF801408DF802406C
:100A30008DF80350684600F00DF828208DF800006E
:100A40008DF801608DF802408DF80350684600F083
:100A500001F8F8BD30B50F23C27801780125F2B155
:100A6000144A126801F1E02102F4E062C2F5E0628A
:100A7000120AC2F10404D3404278A24084781C4098
:100A80001443220181F80024007800F01F018D40FA
:100A90004009800000F1E020C0F8005130BD01F0B5
:100AA0001F0085404809800000F1E020C0F8805117
:100AB00030BD00000CED00E0024908430249086027
:100AC000704700000000FA050CED00E030B589B079
:100AD00000F056F9284C4FF47A75072811D2DFE858
:100AE00000F00410263312103A00A0882349401C5D
:100AF000A0800870000A48702A4620211F4800F094
:100B0000E3F909B030BD3221012001F0DDF8A288FF
:100B10001BA1684600F00EFC6946012001F022FA94
:100B200016482A462021203800F0C2F9E9E7322190
:100B3000022001F0C9F8608814A1401C82B26280D2
:100B4000684600F0F7FB03E013A1684600F0F2FBF3
:100B5000694602200DE02946032001F0B5F8E0883F
:100B600011A1401C82B2E280684600F0E3FB6946B6
:100B7000032001F0F7F9C4E7000000208000002006
:100B800073656E643A202564000000007265637628
:100B90003A20256400000000726563763A2074698B
:100BA0006D656F75740000006572726F723A202572
:100BB0006400000030B589B000F0E2F8D0B1284CF4
:100BC0004FF47A7502281CD004283CD006280FD197
:100BD0002946032001F078F8E08822A1401C82B267
:100BE000E280684600F0A6FB6946032001F0BAF9EE
:100BF00009B030BD4FF0FF3220211D4800F058F9F8
:100C0000F6E73221022001F05FF8608819A1401C4C
:100C100082B26280684600F08DFB6946012001F0D7
:100C2000A1F90A2001F0F3F8A0881149401C2031F5
:100C3000A0800870000A48700D482A462021203004
:100C400000F042F9D4E73221012001F03DF8A288FA
:100C50000BA1684600F06EFB69460220C6E7000063
:100C6000000000206572726F723A20256400000057
:100C700060000020726563763A2025640000000061
:100C800073656E643A20256400000000044A002960
:100C9000D16901D0014300E08143D1617047000078
:100CA00000100240044A0029116901D0014300E00C
:100CB000814311617047000000100240044A00297E
:100CC000916901D0014300E08143916170470000C8
:100CD00000100240044A0029D16801D0014300E01D
:100CE0008143D160704700000010024010B515200C
:100CF000FFF74DFB07210A20FFF74DFB3F20FFF7D1
:100D000077FB0020FFF778FBBDE81040FFF7A4BB9E
:100D100010B5FFF7CDFBFFF7A8FB0C221749002009
:100D2000FFF753FB15490C220C311046FFF74DFB22
:100D30001249082208391820FFF747FB0F491822EB
:100D400018312020FFF741FB0C491D22303138209B
:100D5000FFF73BFB09490B224D315520FFF735FBCF
:100D60000920FFF7D8FB20F0070040F0020109201E
:100D7000FFF7E1FBBDE81040FFF7B8BF7B27000895
:100D80002DE9F041474C012500272178464E474880
:100D90004FF009080A2907D2DFE801F005071A29F0
:100DA000373C5A6A7176002579E0FFF758FBFFF768
:100DB00077FAFFF731FBFFF7D4FAFFF74AFB20B1D0
:100DC000022020703068A06169E084F80080F9E7B3
:100DD0000068000701D5032020702069411C5ED007
:100DE0003168A269891A814259D904203EE0FFF78F
:100DF00036FB6188A068FFF78CFBFFF751FA607043
:100E0000FFF72AFB2770022549E0FFF725FB277033
:100E1000032544E0FFF723FBFFF742FAFFF707FB48
:100E2000FFF7AAFAA188E068FFF783FB6E20FFF7BF
:100E300072FB800701D484F80080FFF713FB20B118
:100E4000062020703068E06129E084F80080F9E72E
:100E50000068800601D5072020706069411C1ED003
:100E60003168E269891A814219D90820207016E098
:100E7000FFF716FAFFF7F0FA277004250FE0FFF7E7
:100E8000EBFA277005250AE0FFF74FFB142000F06E
:100E9000BEFFFFF7E4FAFFF729FF27700625284673
:100EA000BDE8F081200000200C0000200814014063
:100EB00010B5044CA06061802261FFF76AF901203F
:100EC000207010BD20000020034BD86099800520C1
:100ED0005A61187070470000200000200CB50022F5
:100EE000264800920192016841F4803101604FF47C
:100EF000A063016801F4003101910099491C00913F
:100F0000019911B900999942F3D10168890333D548
:100F1000012101911A490A6842F010020A600A6828
:100F200022F003020A600A6842F002020A60416885
:100F3000416041684160416841F4806141604168BD
:100F400021F47C114160416841F4981141600168CD
:100F500041F08071016001688901FCD5416821F090
:100F600003014160416841F0020141604168C1F301
:100F700081010229FAD10CBD01920CBD0010024082
:100F8000002002404FF0E0210428086903D020F03F
:100F900004000861704740F00400FAE70248016865
:100FA000491C0160704700000C0000200F4810B57C
:100FB000016841F00101016041680D4A1140416042
:100FC00001680C4A11400160016821F48021016030
:100FD000416821F4FE0141604FF41F018160FFF779
:100FE0007DFF05494FF00060086010BD0010024011
:100FF0000000FFF8FFFFF6FE08ED00E04FF0E020F4
:1010000006494161064AF02182F8141D00218161E0
:10101000072101610420FFF7B5BF00003F1901005F
:101020000FE000E0FEE7FEE7FEE7FEE770477047EF
:1010300005480188C90706D0011F0988C90702D0E1
:101040004FF6FE7101807047100800400648018885
:10105000C90708D0011F0988C90704D04FF6FE71DF
:10106000018000F033BF7047100C00400748018A30
:10107000C9070AD08189C90707D04FF6FE710182DE
:1010800003480068002800D0004770470010004067
:101090001C0000200029018802D041F0800101E0FD
:1010A00021F0800101807047C94301827047002907
:1010B000018802D041F0010101E021F0010101802D
:1010C000704700004B4910B5884202D10121C41479
:1010D00086E0B0F1804F09D0474988420DD1012107
:1010E0000220FFF7DFFD0021022064E00121084615
:1010F000FFF7D8FD002101205DE04049884206D17C
:1011000001210420FFF7CEFD0021042053E03C49DB
:10111000884206D101210820FFF7C4FD00210820E4
:1011200049E03849884206D101211020FFF7BAFD75
:10113000002110203FE03449884206D101212020BF
:10114000FFF7B0FD0021202035E03049884202D170
:101150000121441444E02E49884202D10121CC04EB
:101160003EE02C49884202D101210C0538E02A4991
:10117000884202D101214C0532E02849884206D13B
:1011800001214020FFF78EFD0021402013E024497B
:10119000884206D101218020FFF784FD00218020B4
:1011A00009E0204988420AD1841501212046FFF731
:1011B00079FD00212046BDE81040FFF773BD1A49B4
:1011C000884202D101210C040AE01849884202D168
:1011D00001214C0404E0164988420AD101218C0403
:1011E0002046FFF777FD2046BDE810400021FFF7BD
:1011F00071BD10BD002C01400004004000080040FB
:10120000000C004000100040001400400034014079
:10121000004C0140005001400054014000180040C3
:10122000001C0040002000400040014000440140FC
:1012300000480140002A828901D00A4300E08A4325
:101240008281704730B502881B4C1C4DA0420DD0E6
:10125000A8420BD0B0F1804F08D0194B984205D06E
:10126000184B984202D0184B984203D122F07003D9
:101270004A881A43154B984206D0154B984203D022
:1012800022F44073CA881A4302808A8882850A88B9
:101290000285A0420AD0A84208D00E4A904205D04A
:1012A0000D4A904202D00D4A904201D1097A01863E
:1012B0000121818230BD0000002C0140003401403A
:1012C0000004004000080040000C004000100040F6
:1012D000001400400040014000440140004801402B
:1012E0003EB5134C2046FFF7EDFE40F2E731ADF876
:1012F00004104720ADF800000021ADF80610ADF84D
:10130000021069462046FFF79DFF01212046FFF7A6
:10131000CBFE00212046FFF7BDFE012211462046EC
:10132000FFF788FF00212046FFF7C1FE3EBD000009
:10133000000C00400FB4084B10B504A902AA039892
:1013400000F01CF8044602A9002000F0C1F8204675
:1013500010BC5DF814FB0000D114000802E008C8BE
:10136000121F08C1002AFAD170477047002001E01F
:1013700001C1121F002AFBD1704700002DE9FF4F69
:1013800089B09B460446002506E025280BD05A4626
:101390000B999047641C6D1C20780028F5D10DB086
:1013A0002846BDE8F08F0027B8460122474900E0F3
:1013B000074314F8013F203B02FA03F00842F7D13B
:1013C00020782E2819D114F8010F47F004072A2895
:1013D0000ED06FF02F022078A0F1300109290CD82F
:1013E00008EB880102EB410100EB0108641CF2E705
:1013F0000A98641C50F8048B0A9020780028CED0FC
:10140000642808D0692806D075281ED05A460B9942
:1014100090476D1C58E00A994FF00A0901C90A91DA
:10142000002802DA40422D2102E0390504D52B21A3
:101430008DF82010012103E0F90704D02021F7E7FF
:101440008A4608AE0DE00021FAE70A994FF00A0932
:1014500001C90A91F7E74946FEF7ADFE303106F8BB
:10146000011D0028F7D1ADEB060000F12009780737
:1014700001D44FF00108C84502DDA8EB090000E0E7
:1014800000208046002706E008A85A46C05D0B9958
:1014900090476D1C7F1C5745F6DB04E030205A4610
:1014A0000B9990476D1CB8F10001A8F10108F5DC1B
:1014B00005E016F8010B5A460B9990476D1CB9F1DF
:1014C0000001A9F10109F4DC641C65E709280100A9
:1014D0000A68531C0B6010707047000070B5064D11
:1014E0004FF480642C6004481023032221461438F2
:1014F000FFF79AF92C6070BD140801400720401EC8
:10150000FDD270470820401E80B2FCD27047000018
:1015100070B5174C40252560154810230322294635
:101520001038FFF781F92560124D10242C60114E00
:101530002346143E032221463046FFF775F92C60FE
:101540000C4C0425241F2560102303222946304615
:10155000FFF76AF9256080252560102303222946BC
:101560003046FFF761F92560BDE87040FFF7C6BF60
:10157000100C0140141401402DE9F35F264C4FF08C
:1015800004088346C4F80080DFF88CA01023AAF179
:10159000100A032241465046FFF746F91025261D42
:1015A00035602B46032229465046FFF73DF935604A
:1015B000802727601023032239465046FFF734F96D
:1015C000276016494FF04009C1F80090FFF796FFD9
:1015D000FFF794FF4BF0800000F0ACF804230322E7
:1015E00019465046FFF720F900F07CF80199087081
:1015F0003560FFF783FFFFF781FF0849091FC1F836
:101600000090C4F800800423032219465046FFF7D7
:101610000BF92760BDE8FC9F10140140140C014039
:101620002DE9F05F2D4F8025884681463D60DFF82B
:10163000ACB01023ABF1100B032229465846FFF73C
:10164000F3F83D60264C40262660254810230322EF
:1016500031461038FFF7E8F826604FF0100A3E1DBB
:101660005446C6F800A05346032251465846FFF799
:10167000DBF834600423032219465846FFF7D4F8F8
:1016800000241FE03560FFF739FFFFF737FF00F058
:1016900029F809F80400C6F800A0FFF733FFFFF7A8
:1016A00031FFFFF72FFF3D60FFF72CFFFFF72AFF09
:1016B000FFF728FFFFF726FFFFF724FFFFF722FFC2
:1016C000641CA4B24445DDD30423032219465846C2
:1016D000FFF7AAF83D60BDE8F09F0000101401403C
:1016E000100C01402DE9F047114FDFF84490FF2521
:1016F00000241026A7F10408A9F10C093E60FFF7A9
:10170000FDFE6806000EC8F80060D9F80010490711
:1017100002D540F0010501E020F00105FFF7EEFEE3
:10172000641CE4B2082CE9D32846BDE8F087000029
:10173000141401402DE9F047DFF838900024042705
:1017400005461026A9F104084846C9F80060290694
:1017500000D540460760FFF7D1FE6806050EC8F8C1
:101760000060FFF7CBFE641CE4B2082CECD3BDE8AC
:10177000F0870000141401402DE9F35F234C4FF073
:1017800004088346C4F80080DFF880A01023AAF183
:10179000100A032241465046FFF746F81025261D41
:1017A00035602B46032229465046FFF73DF8356049
:1017B000802727601023032239465046FFF734F86C
:1017C000276013494FF04009C1F80090FFF796FEDB
:1017D000FFF794FE0BF07F00FFF7ACFF0198FFF7D7
:1017E000A9FF3560FFF78AFEFFF788FE0849091F49
:1017F000C1F80090C4F80080042303221946504623
:10180000FFF712F82760BDE8FC9F000010140140AC
:10181000140C01402DE9F05F2E4F8025884681464B
:101820003D60DFF8B0A01023AAF1100A0322294678
:101830005046FEF7F9FF3D60274C402626602648BB
:101840001023032231461038FEF7EEFF266007F121
:10185000040B10265C46CBF8006033460322314669
:101860005046FEF7E1FF2660102303220421504674
:10187000FEF7DAFFB24600245E461FE03560FFF750
:101880003DFEFFF73BFE19F80400FFF753FFC6F8D3
:1018900000A0FFF737FEFFF735FEFFF733FE3D6090
:1018A000FFF730FEFFF72EFEFFF72CFEFFF72AFEB4
:1018B000FFF728FEFFF726FE641CA4B24445DDD3E3
:1018C00004480423032219461038FEF7ADFF3D609B
:1018D000BDE8F09F10140140100C014030B5002508
:1018E0000021284600F044F90024002000F012F9FD
:1018F000641CE4B2802CF8D36D1CEDB2082DEFD33C
:1019000030BD00002DE9F041DFF864800C46174639
:10191000184998F80220002501EBC016D2B100202A
:1019200000F03EF916E020385E2811D2C1B2124A0A
:1019300001EB81010020114423180A5C401CC0B255
:10194000F2540528F8D300212044A41D3154E4B2F8
:101950006D1CEDB2785D0028E5D198F802000028F2
:1019600004D0BDE8F041012000F01AB9BDE8F081D3
:1019700008000020A0000020982500082DE9F0476D
:101980001F4F1023032201213846FEF74DFF1C4C48
:10199000012010342060DFF86C90102303222021F6
:1019A0004846FEF741FF174D2020143528604FF4BC
:1019B00000781023032241464846FEF735FF2E1FCC
:1019C000C6F800801023032202213846FEF72CFFC0
:1019D000022020601023032280214846FEF724FFC6
:1019E0008020286044001023032221464846FEF749
:1019F0001BFF346000F008F8BDE8F047FFF76EBF4A
:101A000000180140000C014070B500F04FF8E220D2
:101A100000F060F8052000F0FAF92C2000F05AF8E8
:101A2000052000F0F4F92E2000F054F8052000F015
:101A3000EEF92F2000F04EF8052000F0E8F9232001
:101A400000F048F8812000F045F8282000F042F826
:101A5000A22000F03FF8A02000F03CF8C82000F0E1
:101A600039F8402000F036F8AF2000F033F8084D88
:101A700000244FF480662C706C7031460548FEF7E8
:101A800088FB31460448FEF784FBAC7070BD000053
:101A900008000020A0040020A0000020024920200F
:101AA0000860012000F0B3B9100C014070B5084D7A
:101AB00001242C60142000F0AAF9281D0460642081
:101AC00000F0A5F92C60BDE87040142000F09FB92B
:101AD00010180140F0B50D4902260E600C4A491558
:101AE0001160002194158023151F1360070601D58E
:101AF0002C6000E014604006000E2B60491CC9B247
:101B00000829F2D30148001F0660F0BD14180140F7
:101B1000140C0140F0B5134A1149137801EBC313BB
:101B200051785854491C51700F4902260E600F4CD1
:101B300049152160231D00219D1580221A6007068A
:101B400001D5256000E01D604006000E2260491CA2
:101B5000C9B20829F2D30448001F0660F0BD000096
:101B6000A00400200800002014180140100C0140BF
:101B700010B50C460949087000F00F004C7040F099
:101B8000B000FFF7A7FF102040EA1410FFF7A2FFF4
:101B900004F00F00BDE81040FFF79CBF08000020D4
:101BA0002DE9F047F0B1DFF850800025A8F58069F5
:101BB000002408EBC51709EBC516395D305D884276
:101BC00006D021462846FFF7D3FF305DFFF7A2FF7E
:101BD000641CE4B2802CF0D36D1CEDB2082DE7D369
:101BE000BDE8F087BDE8F04703494FF48062A1F5F6
:101BF0008060FEF7B5BA0000A0040020012000F0CC
:101C00002BB8022000F028B8032000F025B800000F
:101C100070B50F49042008600E488021016044140B
:101C200004600B481023032204211438FEF7FCFD46
:101C3000084D1023143D032280212846FEF7F4FDB1
:101C400021462846BDE8704010230322FEF7ECBD74
:101C5000140C01401418014030B50C4904230A4CFF
:101C600080224D1460B1012804D0022804D003283A
:101C700001D103E0236030BD0A6030BD0D6030BD8E
:101C800023600A60FAE70000140C014014180140B8
:101C900030B50C4904230A4C80224D1460B1012850
:101CA00004D0022804D0032801D103E0236030BD12
:101CB0000A6030BD0D6030BD23600A60FAE70000A5
:101CC000100C01401018014010B50446012804D042
:101CD000022C06D0032C09D10DE00A460849002049
:101CE00002E00A460749012000F018F92046BDE845
:101CF0001040FFF7CDBF0A4603490220F4E7000079
:101D0000FD1B0008031C0008091C0008114A0020E4
:101D1000411C1154401C2028FADBFEF7F3FDFEF7AE
:101D2000F7FFFEF7DFFB50B10BA1002000F01AF91E
:101D30000D4C207801280AD0FEF73CFFF9E70BA1F3
:101D4000002000F00FF90320FFF7A2FFFEE7FEF7E7
:101D5000BDFEEEE780000020434D54323330304169
:101D6000207265616479000000000020434D543208
:101D700033303041206E6F7420666F756E642100C1
:101D80006421484340E000BF00BF00BF00BF00BF68
:101D900000BF00BF00BF00BF00BF00BF00BF00BF4B
:101DA00000BF00BF00BF00BF00BF00BF00BF00BF3B
:101DB00000BF00BF00BF00BF00BF00BF00BF00BF2B
:101DC00000BF00BF00BF00BF00BF00BF00BF00BF1B
:101DD00000BF00BF00BF00BF00BF00BF00BF00BF0B
:101DE00000BF00BF00BF00BF00BF00BF00BF00BFFB
:101DF00000BF00BF00BF00BF00BF00BF00BF00BFEB
:101E000000BF00BF00BF00BF401EBCD2704700B57E
:101E100000EB8000420002E00120FFF7B1FF521EFC
:101E2000FAD200BD40E000BF00BF00BF00BF00BF4E
:101E300000BF00BF00BF00BF00BF00BF00BF00BFAA
:101E400000BF00BF00BF00BF00BF00BF00BF00BF9A
:101E500000BF00BF00BF00BF00BF00BF00BF00BF8A
:101E600000BF00BF00BF00BF00BF00BF00BF00BF7A
:101E700000BF00BF00BF00BF00BF00BF00BF00BF6A
:101E800000BF00BF00BF00BF00BF00BF00BF00BF5A
:101E900000BF00BF00BF00BF00BF00BF00BF00BF4A
:101EA00000BF00BF00BF00BF401EBCD27047000093
:101EB000044800214160C160016180210248FEF7B1
:101EC00068B900000C000020A008002070B50024B4
:101ED000104E254606EBC400416871B156F8341027
:101EE00059B156F83410491E46F8341056F83410DB
:101EF00009B9406880476D1CEDB2641CE4B2102C37
:101F0000E8D3002D05D1BDE8704000210248FFF75D
:101F1000CEB870BDA0080020000C0040F0B4002333
:101F20000E4D1C4605EBC306766826B155F83360A6
:101F30000EB1641CE4B25B1CDBB2102BF2D305EBD8
:101F4000C003596045F83020002C04D1F0BC0121B9
:101F50000348FFF7ACB8F0BC70470000A0080020B1
:101F6000000C004070B50D460446202211460D4875
:101F7000FEF708F92846FEF717F9024629460948F0
:101F8000FEF7EEF8074900204875FFF709FE054AFD
:101F900000212046FFF7B6FCBDE870400120FFF7A6
:101FA000FFBD000040000020000000000000000015
:101FB0000000000000000000000038FCFC380000B9
:101FC0000000000D0D000000000E1E00001E0E009F
:101FD000000000000000000020F8F820F8F82000C1
:101FE000020F0F020F0F0200387C444747CC9800C5
:101FF000060C0838380F070030300080C060300011
:102000000C060301000C0C0080D87CE4BCD8400016
:10201000070F0808070F080000101E0E0000000040
:1020200000000000000000000000F0F80C040000B8
:10203000000003070C0800000000040CF8F000008A
:102040000000080C0703000080A0E0C0C0E0A080F2
:102050000002030101030200008080E0E0808000B4
:10206000000000030300000000000000000000006A
:102070000000101E0E0000008080808080808000A4
:102080000000000000000000000000000000000050
:102090000000000C0C00000000000080C060300058
:1020A0000C06030100000000F8F80CC40CF8F00066
:1020B00003070C080C070300001018FCFC000000CC
:1020C0000008080F0F080800080C84C4643C1800BE
:1020D0000E0F0908080C0C00080C444444FCB8001E
:1020E000040C0808080F0700C0E0B098FCFC800052
:1020F000000000080F0F08007C7C444444C48400A6
:10210000040C0808080F0700F0F84C4444C0800095
:10211000070F0808080F07000C0C0484C47C3C005F
:1021200000000F0F00000000B8FC444444FCB8005D
:10213000070F0808080F0700387C444444FCF800E7
:10214000000808080C070300000000303000000001
:102150000000000606000000000000303000000013
:102160000000080E060000000080C0603018080063
:1021700000000103060C0800002020202020200081
:1021800000010101010101000008183060C0800059
:1021900000080C0603010000181C04C4E43C1800ED
:1021A0000000000D0D000000F0F008C8C8F8F000B5
:1021B000070F080B0B0B0100E0F0988C98F0E00083
:1021C0000F0F0000000F0F0004FCFC4444FCB8009B
:1021D000080F0F08080F0700F0F80C04040C180093
:1021E00003070C08080C060004FCFC040CF8F000C3
:1021F000080F0F080C07030004FCFC44E40C1C004F
:10220000080F0F08080C0E0004FCFC44E40C1C0032
:10221000080F0F0800000000F0F80C84848C980070
:1022200003070C0808070F00FCFC404040FCFC00C2
:102230000F0F0000000F0F00000004FCFC04000062
:102240000000080F0F08000000000004FCFC040060
:10225000070F08080F07000004FCFCC0E03C1C004E
:10226000080F0F00010F0E0004FCFC04000000002A
:10227000080F0F08080C0E00FCFC387038FCFC003E
:102280000F0F0000000F0F00FCFC3870E0FCFC009A
:102290000F0F0000000F0F00F8FC040404FCF8000E
:1022A000070F0808080F070004FCFC44447C3800B2
:1022B000080F0F0800000000F8FC040404FCF800FC
:1022C000070F080E3C3F270004FCFC44C4FC380008
:1022D000080F0F00000F0F00183C6444C49C180046
:1022E000060E0808080F0700001C0CFCFC0C1C0064
:1022F0000000080F0F080000FCFC000000FCFC00C0
:10230000070F0808080F0700FCFC000000FCFC0099
:102310000103060C06030100FCFC000000FCFC00AD
:10232000070F0E030E0F07000C3CF0E0F03C0C0012
:102330000C0F0301030F0C00000C7CC0C07C3C00A0
:102340000000080F0F0800001C0C84C4643C1C0033
:102350000E0F0908080C0E000000FCFC040400002D
:1023600000000F0F080800003870E0C08000000077
:102370000000000103070E0000000404FCFC000044
:10238000000008080F0F0000080C0603060C0800E8
:10239000000000000000000000000000000000003D
:1023A000202020202020202000000307040000001F
:1023B000000000000000000000A0A0A0E0C000009D
:1023C000070F0808070F080004FCFC2060C080000D
:1023D000000F0F08080F0700C0E020202060400019
:1023E000070F0808080C040080C06024FCFC0000F3
:1023F000070F0808070F0800C0E0A0A0A0E0C00079
:10240000070F0808080C040040F8FC440C180000F2
:10241000080F0F0800000000C0E02020C0E02000EE
:10242000276F48487F3F000004FCFC4020E0C000CC
:10243000080F0F00000F0F00000020ECEC00000060
:102440000000080F0F0800000000000020ECEC0066
:1024500000307040407F3F0004FCFC80C0602000E2
:10246000080F0F01030E0C00000004FCFC0000002C
:102470000000080F0F080000E0E060C060E0C0004E
:102480000F0F0007000F0F0020E0C02020E0C00069
:10249000000F0F00000F0F00C0E0202020E0C00060
:1024A000070F0808080F070020E0C02020E0C00048
:1024B000407F7F48080F0700C0E02020C0E02000D8
:1024C000070F08487F7F400020E0C06020E0C00088
:1024D000080F0F080000000040E0A020206040002E
:1024E000040C09090B0E04002020F8FC2020000039
:1024F0000000070F080C0400E0E00000E0E000002E
:10250000070F0808070F080000E0E00000E0E00007
:102510000003070C0C070300E0E0008000E0E0008F
:10252000070F0C070C0F07002060C080C060200060
:10253000080C0703070C0800E0E0000000E0E000E2
:10254000474F4848683F1F00606020A0E0602000BF
:102550000C0E0B09080C0C00004040F8BC040400F1
:10256000000000070F080800000000BCBC000000CD
:102570000000000F0F000000000404BCF840400001
:102580000008080F07000000080C040C080C0400E9
:102590000000000000000000000000000000004FEC
:1025A00000000007000700147F147F14242A7F2AEC
:1025B00012231308646236495522500005070000B3
:1025C000001C2241000041221C0014083E0814088F
:1025D000083E08080050300000080808080800609D
:1025E00060000020100804023E5149453E00427F31
:1025F000400042615149462141454B311814127F38
:102600001027454545393C4A4949300171090503C0
:102610003649494936064949291E00363600000028
:1026200056360000081422410014141414140041FA
:102630002214080201510906324979413E7E1111E6
:10264000117E7F494949363E414141227F41412225
:102650001C7F494949417F090909013E4149497A9D
:102660007F0808087F00417F41002040413F017FF3
:10267000081422417F404040407F020C027F7F04CB
:1026800008107F3E4141413E7F090909063E415104
:10269000215E7F09192946464949493101017F01D7
:1026A000013F4040403F1F2040201F3F4038403FF7
:1026B0006314081463070870080761514945430013
:1026C0007F41410002040810200041417F000402C4
:1026D00001020440404040400102040000205454E4
:1026E00054787F4848483038444444443048484847
:1026F0007F385454545800087E0902485454543CBE
:102700007F0808087000007A00002040403D007FEC
:102710002028440000417F40007C0438047C7C0871
:1027200004047838444444387C14141408081414FD
:10273000147C7C08040408485454542404043F4482
:10274000243C4040403C1C2040201C3C4030403C4D
:10275000442810284404483008044464544C440875
:102760003641410000007700000041413608040274
:102770000202014271CE1C425B1C1C0066EC1CF084
:10278000801408910202D0AEE0350000F410E2425D
:1027900020008132180099C19B060A9F392929C05F
:1027A000512A530000B40000010000120800AA02E0
:1027B000000000000000D42D001F000000000000F9
:1027C000000060FF00001F105026030042B00037D9
:1027D0000A3F7F00F42700080000002040000000AE
:1027E0005C1300083428000840000020C80E0000D8
:1027F0006C13000801000000000000000000000051
:1028000000000000000000000000000000000000C8
:1028100000000000000000000000000000000000B8
:1028200000000000FFFFFFFFFFFFFFFF00000000B0
:0428300000000000A4
:0400000508000131BD
:00000001FF
